:10000000F8FF002011040000D34B0000D34B000088
:10001000D34B0000D34B0000D34B0000D34B000068
:10002000D34B0000D34B0000D34B0000D34B000058
:10003000D34B0000D34B0000D34B0000D34B000048
:10004000D34B0000D34B0000D34B0000D34B000038
:10040000FFFFFFFFFFFFFFFFFFFFFFFFFEFFFFFFFD
:1004100062B606F00BFEFEE780B500F0A4F800F02F
:10042000AEF800F0F9F902F0AFFC002808D0002087
:10043000DFF8A419086002F023FD02F04BFDFEE78F
:100440003B2027E0DFF89419C0B2502202FB00F2F3
:100450001144DFF81C2DC0B2125C00238B54DFF86E
:100460007C19C0B2502202FB00F21144DFF870295F
:10047000C0B2125C00238B54DFF86019C0B2502266
:1004800002FB00F21144DFF85C29C0B2125C0023C9
:100490008B54401E0100DFF850291278C9B29142F6
:1004A000D0D2DFF8CC0CDFF840190978415C0CE0C1
:1004B000DFF82829DFF8300903785020434302EBA6
:1004C0000300C9B200224254491CDFF81409DFF8C6
:1004D00018291278805C0A00D2B29042E8D202F069
:1004E00023FF01BD0A20DFF8001908702720DFF87C
:1004F000FC180870DFF8F80800210160DFF8F40844
:1005000000210160DFF8F008002101600020DFF821
:10051000C81808600020DFF8E418C8700020DFF871
:10052000DC18C8710020DFF8D418C8720020DFF88A
:10053000CC18C8730020DFF8C418C8740020DFF896
:10054000BC1888700020DFF8B41888710020DFF82C
:10055000AC1888720020DFF8A41888730020DFF838
:100560009C188874704780B502F08BFF4FF41672A8
:10057000DFF88C18DFF8640803F022F801BD10B42E
:100580003B2100E0491EC9B20229C0F2C880002206
:10059000DFF84808C9B2502303FB01F31844D2B274
:1005A000805CFF281CD1531C00E05B1CD2B2501DA4
:1005B000DBB2984214DBDFF82408C9B2502404FBF4
:1005C00001F42044DBB2C05C0028EED1DFF80C0857
:1005D000C9B2502303FB01F31844D2B20023835461
:1005E00001221BE05B1CD2B2501DDBB2984214DB2F
:1005F000DFF8E807C9B2502404FB01F42044DBB261
:10060000C05C0028EED1DFF8D407C9B2502303FB49
:1006100001F31844D2B200238354521CD2B24A2AA6
:1006200019DADFF8B807C9B2502303FB01F3184405
:10063000D2B2805CFF28F0D1DFF8A007C9B2502306
:1006400003FB01F31844D2B2104410F8010C002847
:10065000E3D1531CC7E74F22DFF88007C9B250230C
:1006600003FB01F31844D2B2805CFF281CD1531E57
:1006700000E05B1EDBB2D2B2501F834214DBDFF816
:100680005C07C9B2502404FB01F42044DBB2C05C17
:100690000028EED1DFF84407C9B2502303FB01F371
:1006A0001844D2B2002383544E221BE05B1EDBB2FF
:1006B000D2B2501F834214DBDFF82007C9B25024A6
:1006C00004FB01F42044DBB2C05C0028EED1DFF86B
:1006D0000C07C9B2502303FB01F31844D2B2002324
:1006E0008354521ED2B24A2AFFF64CAFDFF8EC0612
:1006F000C9B2502303FB01F31844D2B2805CFF2837
:10070000EFD1DFF8D806C9B2502303FB01F3184438
:10071000D2B2104440780028E3D1531EC7E73B21F2
:1007200000E0491EC9B20B2974DB01221BE0401C0A
:10073000D2B2931CC0B2834214DBDFF8A036C9B238
:10074000502404FB01F42344C0B21B5CFF2BEED108
:10075000DFF88806C9B2502303FB01F31844D2B274
:10076000FF238354521CD2B24D2A19DADFF86C06EB
:10077000C9B2502303FB01F31844D2B2805C0028B5
:10078000F0D1DFF85806C9B2502303FB01F3184437
:10079000D2B2104410F8010CFF28E3D1501CC7E777
:1007A0004E221BE0401EC0B2D2B2931E984214DB10
:1007B000DFF82836C9B2502404FB01F42344C0B248
:1007C0001B5CFF2BEED1DFF81406C9B2502303FBEC
:1007D00001F31844D2B2FF238354521ED2B24D2AE1
:1007E0009FDBDFF8F805C9B2502303FB01F318447F
:1007F000D2B2805C0028F0D1DFF8E005C9B2502306
:1008000003FB01F31844D2B210444078FF28E4D12E
:10081000501EC8E710BC704780B5FFF763FE00F0BC
:1008200007F800F0A1FE00F003F802F095F801BD12
:100830002DE9F04700F0E6FADFF8340990F83B00C4
:10084000DFF89C1591F83B100818022190FBF1F796
:100850007E1C3C003800C0B200F05DFE0500DFF8F1
:10086000F40AE4B20555B7F101081AE04046C0B2F7
:1008700000F051FE2900C9B2884206D24446E4B2D3
:100880004046C0B200F047FE05004046C0B200F04E
:1008900042FEDFF8C01A4FFA88F801F80800B8F1F4
:1008A0000108404640B2DFF8C81891F83B1000B28A
:1008B00009B28842DADAB0463000C0B200F02BFE4E
:1008C0008146DFF8900A5FFA88F800F8089016F180
:1008D000010A1BE05046C0B200F01DFE4946C9B2F5
:1008E000884207D2D0465FFA88F85046C0B200F07E
:1008F00012FE81465046C0B200F00DFEDFF8541AD9
:100900004FFA8AFA01F80A001AF1010ADFF8D00456
:1009100090F83B00514649B200B209B28842D9DA98
:1009200028004946C0B2C9B2884201D2A9464BE06C
:1009300048462900C0B2C9B2884201D2444643E0C9
:100940005FFA88F8F6B2B8EB0600FFB2E4B2391BE2
:10095000884201DA444637E0FFB2E4B2381B5FFA5E
:1009600088F8F6B2B8EB0608404501DAA9462BE054
:10097000F6B256FA87F002F06DFE00225FF0804377
:1009800002F07AFE0022DFF8C43B02F099FF03F088
:1009900053F804003800C0B200F0BDFD050030007F
:1009A000C0B200F0B8FD50FA85F002F053FE00220C
:1009B0005FF0804302F060FE0022DFF8903B02F01F
:1009C0007FFF03F039F881465FFA89F9B9F10B0F1F
:1009D00001DA5FF00A09DFF814040470DFF8080494
:1009E00080F80090E4B2002C40F085803A2466E064
:1009F000491C49B2502926DADFF8E003E4B250225C
:100A000002FB04F2104449B2405C0028F0D1DFF848
:100A1000CC03E4B2502202FB04F2104449B2084471
:100A200010F8010CFF28E3D1481EDFF8B413E4B23C
:100A300008550120DFF8181BE4B208550120DFF843
:100A4000141BE4B20855DFF8080BE4B20057012884
:100A50000ED04F20DFF88813E4B208550020DFF8ED
:100A6000F01AE4B208550320DFF8E81AE4B208559A
:100A7000DFF8FC06E4B2005DDFF86413E4B2095D60
:100A8000081802F0E7FD00225FF0804302F0F4FD59
:100A90000022DFF8B83A02F013FF02F0CDFFD1498F
:100AA000E4B20855CE48E4B2015DDFF8C406E4B212
:100AB000005D091ADFF8A00AE4B20155641E2000A7
:100AC000C9490978C0B28842C0F084810020DFF8AB
:100AD000A016E4B208550020DFF8801AE4B20855E9
:100AE0004F20BF49E4B208550020DFF8641AE4B291
:100AF000085501217DE7E4B24F2C40F081803A2473
:100B000062E0491E49B2002923D4B448E4B250221D
:100B100002FB04F2104449B2405C0028F1D1AF4816
:100B2000E4B2502202FB04F2104449B20844407877
:100B3000FF28E6D1491CDFF83806E4B20155012050
:100B4000DFF8181AE4B208550220DFF8081AE4B2F8
:100B50000855DFF8080AE4B2005701280ED000203B
:100B6000DFF80C16E4B208550020DFF8F019E4B203
:100B700008550320DFF8DC19E4B20855DFF8F0056A
:100B8000E4B2005D9649E4B2095D081802F062FD26
:100B900000225FF0804302F06FFD0022DFF8AC39E5
:100BA00002F08EFE02F048FF8E49E4B208558C48F0
:100BB000E4B2015DDFF8B805E4B2005D091ADFF8C0
:100BC0009809E4B20155641E200087490978C0B233
:100BD0008842C0F0FF800020DFF89415E4B2085589
:100BE0000020DFF87819E4B208554F207C49E4B2C0
:100BF00008550020DFF85819E4B208554E2181E766
:100C00003A253CE00320DFF84C19EDB2485510E0DE
:100C1000DFF84809EDB240570028F3D1DFF830097A
:100C2000EDB240570128EDD10120DFF82819EDB2CF
:100C30004855DFF83C05EDB2405D6949EDB2495DCC
:100C4000081802F007FD00225FF0804302F014FD57
:100C50000022DFF8F83802F033FE02F0EDFE6149C1
:100C6000EDB248555E48EDB2415DDFF80405EDB2E6
:100C7000405D091ADFF8E008EDB241556D1E28000D
:100C800059490978C0B28842C0F0A4800020DFF83A
:100C9000E014EDB248550020DFF8C018EDB2485519
:100CA0004F204F49EDB248550020DFF8A418EDB2AF
:100CB0004855210049B200E0491E49B200291ED41E
:100CC0004648EDB2502202FB05F2104449B2405CA6
:100CD0000028F1D14148EDB2502202FB05F2104448
:100CE00049B208444078FF28E6D1491CDFF8800467
:100CF000EDB241550120DFF86418EDB24855DFF838
:100D00005C08EDB24057012809D00020DFF86014DC
:100D1000EDB248550020DFF84418EDB248552100E7
:100D200049B200E0491C49B250291EDA2B48EDB205
:100D3000502202FB05F2104449B2405C0028F1D178
:100D40002648EDB2502202FB05F2104449B2084495
:100D500010F8010CFF28E5D1481E2149EDB2485595
:100D60000120DFF8EC17EDB24855DFF8E407EDB2EB
:100D70004057012808D04F201949EDB248550020AE
:100D8000DFF8CC17EDB24855DFF8D007EDB2405789
:100D900001280BD1DFF8B807EDB24057012805D183
:100DA0000020DFF8B017EDB2485542E7DFF8AC0796
:100DB000EDB2405701287FF42BAFDFF89407EDB276
:100DC000405700287FF424AF0220DFF88817EDB2E7
:100DD00048552EE7BDE8F087C025FF1FC425FF1F3B
:100DE000000CFF1F543BFF1F300DFF1F310DFF1F75
:100DF000B425FF1FB825FF1FBC25FF1F943CFF1F14
:100E00008438FF1F70B53B24002000210022DFF84A
:100E10006033E4B21A554F22DFF84437E4B21A5572
:100E2000DFF84027E4B2502303FB04F31A4492F89E
:100E30002720FF2A40F09880DFF82827E4B25023CB
:100E400003FB04F31A4492F82820FF2A40F08C8018
:100E50002723282501E05B1E6D1CDBB2032BC0F2AB
:100E60000082C9B200291CD1DFF8F826E4B250266E
:100E700006FB04F63244EDB22A445278002A10D11F
:100E8000DFF8E026E4B2502606FB04F63244EDB269
:100E90002A449278002A04D10121DFF8C426E4B262
:100EA0001555C0B200281DD1DFF8B826E4B250268F
:100EB00006FB04F63244DBB21A4412F8012C002A75
:100EC00010D1DFF8A026E4B2502606FB04F6324427
:100ED000DBB21A4412F8022C002A03D10120A44AE2
:100EE000E4B213550200D2B20A42B4D0DFF8702641
:100EF000E4B2135D9E4AE4B2125D9B1A102B80F29D
:100F0000B081DFF86006E4B2502101FB04F108442F
:100F1000C07CFF280CD1DFF84C06E4B2502101FB65
:100F200004F10844007DFF2802D10020002130E0B8
:100F3000DFF83006E4B2502101FB04F1084490F8D8
:100F40003B00FF280DD1DFF81C06E4B2502101FB65
:100F500004F1084490F83C00FF2802D10020002151
:100F6000A5E00020002100E1DFF8F825E4B25023DD
:100F700003FB04F31A44D27CFF2A40F08280DFF89E
:100F8000E425E4B2502303FB04F31A44127DFF2A44
:100F900077D11323142500E06D1CEDB24D2D80F2A6
:100FA0006081C0B2002821D1DBB2032B1EDBDFF849
:100FB000B425E4B2502606FB04F63244DBB21A44F0
:100FC00012F8012C002A11D1DFF89825E4B250263E
:100FD00006FB04F63244DBB21A4412F8022C002A53
:100FE00004D10120624AE4B213555B1EC9B2002944
:100FF0001CD1DFF87025E4B2502606FB04F632441B
:10100000EDB22A445278002A10D1DFF85825E4B214
:10101000502606FB04F63244EDB22A449278002AA8
:1010200004D10121DFF83825E4B215550200D2B20F
:101030000A42B1D0DFF82825E4B2135D4C4AE4B28D
:10104000125D9B1A102B80F20C81DFF81805E4B2B8
:10105000502101FB04F1084490F83B00FF280DD11A
:10106000DFF80005E4B2502101FB04F1084490F8D8
:101070003C00FF2802D10020002118E000200021C0
:1010800073E0DFF8E024E4B2502303FB04F31A44D6
:1010900092F83B20FF2A68D1DFF8C824E4B250233D
:1010A00003FB04F31A4492F83C20FF2A5DD13B2352
:1010B0003C2500E05B1EDBB2032BC0F2D280C0B245
:1010C00000281DD1DFF89C24E4B2502606FB04F66C
:1010D0003244DBB21A4412F8012C002A10D1DFF896
:1010E0008424E4B2502606FB04F63244DBB21A44F0
:1010F00012F8022C002A03D101201D4AE4B2135534
:10110000C9B2002920D1EDB24D2D1DDADFF85424EB
:10111000E4B2502606FB04F63244EDB22A4452787B
:10112000002A11D1DFF83C24E4B2502606FB04F675
:101130003244EDB22A449278002A05D10121DFF829
:101140002024E4B215556D1C0200D2B20A42B1D07F
:10115000DFF80C24E4B2135D054AE4B2125D9B1A79
:10116000102B80F27E8000200021002338E000BF99
:10117000183BFF1FDFF8EC23E4B2502505FB04F514
:101180002A44DBB2D25CFF2A29D1DFF8D823E4B2AB
:10119000502505FB04F52A44DBB21A445278FF2A95
:1011A0001DD1DFF8C023E4B2502505FB04F52A4425
:1011B000DBB21A449278002A11D1DFF8A823E4B2F6
:1011C000502505FB04F52A44DBB21A44D278002AE4
:1011D00005D101215A1CDFF88853E4B22A555B1C63
:1011E000DBB24C2BC6DB4F2338E0DFF87823E4B2C8
:1011F000502505FB04F52A44DBB2D25CFF2A2CD132
:10120000DFF86023E4B2502505FB04F52A44DBB285
:101210001A4412F8012CFF2A1FD1DFF84823E4B248
:10122000502505FB04F52A44DBB21A4412F8022CBF
:10123000002A12D1DFF82C23E4B2502505FB04F577
:101240002A44DBB21A4412F8032C002A05D10120EB
:101250005A1EDFF84C5BE4B22A555B1EDBB2042B4E
:10126000C3DAC0B2002805D00120DFF8F022E4B2D2
:10127000105504E00020DFF8E422E4B21055C9B2B2
:10128000002905D00120DFF8C812E4B2085504E0B7
:101290000020DFF8BC12E4B20855DFF8C002E4B267
:1012A000005701280BD1DFF8A802E4B2005701284B
:1012B00005D10020DFF89C12E4B2085525E0DFF8E4
:1012C0009C02E4B2005701280BD1DFF88402E4B29B
:1012D0000057002805D10220DFF87812E4B2085543
:1012E00013E0DFF87802E4B20057002809D19848EB
:1012F000E4B20057012804D101209649E4B2085510
:1013000003E003209349E4B20855DFF8940AE4B2FD
:10131000005D9349E4B2095D081802F09BF90022D0
:101320005FF0804302F0A8F90022884B02F0C8FA6F
:1013300002F082FBDFF86C1AE4B208558848E4B288
:10134000015DDFF85C0AE4B2005D091A8248E4B28C
:10135000015570BD903BFF1FF8B5C0B201286BD19D
:10136000002000217E4A92F83B7000E07F1EFFB211
:101370000B2F41DBC0B2002816D1DFF82C2AFFB2B8
:1013800012F807C0DFF8202AFFB23A4412F8012C05
:10139000BCEB020CBCF1080F06DB3E00DFF8080ACC
:1013A000FFB2C35D0120BF1EC0B2002820D0DFF80D
:1013B000F829FFB23A4412F8012CDFF8ECC9FFB269
:1013C0001CF807C0624513D2DFF8DC29FFB23A44AB
:1013D00012F8042CDFF8D0C9FFB2BC441CF801CCD1
:1013E000624505D23C00DFF8C019FFB2CD5D012196
:1013F0000200D2B20A42B9D0C0B2002803D1584884
:1014000090F83B603B23C9B2002909D15448DFF86A
:101410009C1909780844C479DFF890090578ED1D16
:10142000012000905BB2320052B2290049B2200084
:1014300040B201F045F96DE0C0B202286AD1002047
:101440000021DFF85C2992F83B7000E07F1CFFB2BE
:10145000462F3EDAC0B2002815D1DFF84C29FFB282
:1014600012F807C0DFF84029FFB23A445278BCEBCB
:10147000020CBCF1080F06DB3E00DFF82C09FFB2BE
:10148000C35D0120BF1CC0B200281ED0DFF81829A0
:10149000FFB23A445278DFF810C9FFB21CF807C017
:1014A000624512D2DFF80029FFB23A441279DFF820
:1014B000F8C8FFB2BC449CF801C0624505D23C00AC
:1014C000DFF8E418FFB2CD5D01210200D2B20A427A
:1014D000BCD0C0B2002804D1DFF8C40890F83B604B
:1014E0003B23C9B200290AD1DFF8B408DFF8BC18E1
:1014F00009780844C479DFF8B4080578ED1D0020A8
:1015000000905BB2320052B2290049B2200040B2D2
:1015100001F0D6F8F1BD02003B2000E0401EC0B251
:10152000092811DB0F49C0B2502303FB00F3194413
:10153000D2B2895C0029F1D1C0B23B2801D13B2055
:1015400003E0401CC0B200E00A2070470000E03F0A
:101550001C3CFF1F583CFF1FDC3AFF1FE03BFF1FF6
:10156000000CFF1FC425FF1F2DE9F84300270026AC
:10157000002500245FF0000800F00EFB3B200BE08C
:10158000641C00E06D1CDFF83C1BC0B2095C4729FD
:1015900001DB18F10108401EDFF81018097802007D
:1015A000D2B291420FD2DFF80818C0B20956002912
:1015B00005D00229E6D004D30329E1D0E3E77F1C5C
:1015C000E1E7761CDFE7DFF8000B0078002840F049
:1015D0007C81DFF8F80A0078002840F07681DFF897
:1015E000F00A0078002840F07081352700E07F1E67
:1015F000FFB21F2FC0F26981DFF8B0070078390011
:10160000C9B2884280F06181DFF8B80AFFB2C15DDB
:10161000DFF8C00AFFB2C05D091A012909DBDFF853
:10162000A40AFFB2C15DDFF8AC0AFFB2C05D081AC0
:1016300008E0DFF8A00AFFB2C15DDFF8880AFFB258
:10164000C05D081A0528D2DADFF8780AFFB23844FC
:1016500010F8021CDFF87C0AFFB2384410F8020CC4
:10166000091A01290DDBDFF85C0AFFB2384410F8D3
:10167000021CDFF8600AFFB2384410F8020C081AA6
:101680000CE0DFF8500AFFB2384410F8021CDFF813
:10169000340AFFB2384410F8020C081A0528A6DAFA
:1016A000DFF8200AFFB2384410F8049CDFF8240A5F
:1016B000FFB2384410F8040C02F0DCF900225FF0AD
:1016C000804301F0D9FF02000B000020DFF81C1C52
:1016D00002F0F6F802F0B0F9C0B2B9EB0000012850
:1016E0001FDBDFF8E009FFB2384410F8049CDFF894
:1016F000E409FFB2384410F8040C02F0BBF90022F0
:101700005FF0804301F0B8FF02000B000020DFF81B
:10171000DC1B02F0D5F802F08FF9C0B2B9EB000083
:101720001EE0DFF8B009FFB2384410F8040C02F0F4
:10173000A1F900225FF0804301F09EFF02000B0040
:101740000020DFF8A81B02F0BBF802F075F90100D9
:10175000C9B2DFF87009FFB2384410F8040C081A57
:101760000828BFF644AFDFF85C09FFB2384410F830
:10177000069CDFF86009FFB2384410F8060C02F04E
:1017800079F900225FF0804301F076FF02000B0040
:101790000020DFF8581B02F093F802F04DF9C0B2B8
:1017A000B9EB0000012820DBDFF81809FFB238444C
:1017B00010F8069CDFF81C09FFB2384410F8060C3C
:1017C00002F058F900225FF0804301F055FF02005B
:1017D0000B000020DFF8141B02F072F802F02CF965
:1017E0000100C9B2B9EB01011DE0DFF8E808FFB262
:1017F000384410F8060C02F03DF900225FF08043F7
:1018000001F03AFF02000B000020DFF8E01A02F0BE
:1018100057F802F011F9C0B2DFF8A818FFB2394446
:1018200011F8061C411A0829BFF6E1AEDFF894084A
:10183000FFB2384410F8060CDFF88818FFB23944BC
:1018400011F8041C8842BFF4D2AEDFF87808FFB26A
:10185000384410F8020CDFF86C18FFB2C95D8842FA
:10186000BFF4C5AEF6B20B2E03DAEDB20B2DFFF6C8
:10187000BEAE0120DFF850180870DFF83405FFB263
:10188000384410F9060C012809D1DFF84C08C07B58
:10189000002804D00020DFF84418087015E0DFF8B5
:1018A0001005FFB2384410F9060C022809D1DFF800
:1018B0002808C07C002804D00120DFF82018087018
:1018C00003E00020DFF800180870DFF8FC0700785C
:1018D000002802D000F008FC5CE1DFF8F007007897
:1018E000002840F08280DFF8F007C07B00287CD021
:1018F000DFF8E407C07C002877D03B2100E0491ED8
:10190000DFF8A80400780A00D2B290426DD2C9B2C2
:101910001F296ADBDFF8AC07C9B2425CDFF8B40705
:10192000C9B2405C121A012A09DBDFF89807C9B274
:10193000425CDFF8A007C9B2405C101A08E0DFF88B
:101940009407C9B2425CDFF87C07C9B2405C101A48
:101950000528D4DADFF86C07C9B2084410F8032C64
:10196000DFF87007C9B2084410F8030C121A012AF4
:101970000DDBDFF85007C9B2084410F8032CDFF87C
:101980005407C9B2084410F8030C101A0CE0DFF831
:101990004407C9B2084410F8032CDFF82807C9B27D
:1019A000084410F8030C101A0528A8DADFF8140709
:1019B000C9B2084410F8090C4C28A0DBDFF8040772
:1019C000C9B2084410F8030CDFF8F826C9B2525C1B
:1019D000904294D2E4B2102C91DB0020DFF8F01694
:1019E00008700120DFF8E4160870DFF8E0060078E0
:1019F000002812D1E4B2152C07DA5FFA88F8B8F1A2
:101A0000150F0ADBE4B20D2C07DB0020DFF8C0164F
:101A100008700120DFF8B4160870DFF8B00600780F
:101A2000002802D000F0C6F9B4E0DFF8A406007880
:101A3000002840F08780DFF8A006C079002804D095
:101A4000DFF89406C07B002809D1DFF88C06C07A45
:101A5000002877D0DFF88006C07C002872D03220C2
:101A60006DE00121DFF87826117067E0DFF8541689
:101A7000C0B2095CDFF84C26C0B2024412F8032C55
:101A800091425BD2DFF83C16C0B2095CDFF8342625
:101A9000C0B20244D278914250D2DFF82816C0B2C8
:101AA000014411F8031CDFF81C26C0B20244D278AE
:101AB000914243D3DFF80C16C0B201444979DFF8F4
:101AC0000426C0B2024412F8052C914236D2DFF847
:101AD000F415C0B2014411F8031CDFF8E825C0B2C8
:101AE000024412F8052C914228D2DFF8D815C0B272
:101AF0000144C978DFF8CC25C0B202445279914242
:101B00001CD2F6B21A2E02DAEDB21A2D16DBA84953
:101B1000C0B20956012904D0A549C0B2095602290C
:101B20000CD10121DFF8A8251170A149C0B20956D6
:101B3000012996D10021DFF8A8251170401EC0B2FE
:101B4000172893DADFF888050078002822D0DFF81C
:101B500090050078002806D1F6B20B2E03DB012099
:101B6000FFF7FAFB15E0DFF878050078002806D0CB
:101B7000EDB20B2D03DB0220FFF7EEFB09E00020A6
:101B8000DFF84C1508700120DFF84015087000F0F0
:101B900011F9FFE7BDE8F1830020814991F93B107D
:101BA00001E00120491C0A0052B2DFF80C3B1B780F
:101BB00012B21BB29A4233DAC0B200280AD17A4A72
:101BC00049B2525C784B49B20B445B789A4201D2DD
:101BD0000120891CC0B20028E4D0734A49B20A44EB
:101BE0005278714B49B25B5C9A42DAD26E4A49B282
:101BF0000A4452786C4B49B25B5C9A42D2D20120C3
:101C0000DFF8D424D0710120DFF8CC24907166482D
:101C100049B2405CDFF8C0245071DFF8BC040171A8
:101C20005F4890F83B100FE0DFF8AC04C07B002861
:101C300009D15D48C9B2425C5B48C9B208444078EA
:101C4000121A092A15DA491C0800DFF86C2A1278E2
:101C5000C0B290421ED2DFF88004C0790028E3D0E1
:101C60005148C9B2405CDFF8702452799042DBD20F
:101C700010E00120DFF86024D0730220DFF8582440
:101C800090734948C9B2405CDFF84C245073DFF8C8
:101C9000480401730020DFF8241A91F93B1001E099
:101CA0000120491EDFF8102A12780B005BB212B235
:101CB0001BB29A4236DAC0B200280BD13A4A49B276
:101CC000525C394B49B20B4413F8013C9A4201D2A1
:101CD0000120891EC0B20028E3D0334A49B20A4429
:101CE00012F8012C304B49B25B5C9A42D8D22E4A92
:101CF00049B20A4412F8012C2B4B49B25B5C9A4260
:101D0000CFD20120DFF8D023D0720120DFF8C82322
:101D10009072254849B2405CDFF8BC235072DFF86E
:101D2000B8030172DFF8940990F83B1010E0DFF877
:101D3000A803C07C00280AD11B48C9B2425C1A48DB
:101D4000C9B2084410F8010C121A092A15DA491E02
:101D5000DFF8640900780A00D2B290421ED2DFF8A0
:101D60007803C07A0028E2D00F48C9B2405CDFF89F
:101D70006823527A9042DAD210E00120DFF858232B
:101D8000D0740220DFF8502390740748C9B2405C39
:101D9000DFF844235074DFF84003017470470000FB
:101DA000183BFF1F543BFF1F903BFF1F300DFF1FD1
:101DB000583CFF1F2DE9F04782B01E241425002354
:101DC0005FF0000C002200205FF03B0E01E0BEF14E
:101DD000010EC4490978F2465FFA8AFA514532D2B7
:101DE000DFF8481B5FFA8EFE11F90E10032906D1A9
:101DF000DBB2002B03D174460123BEF1040EDFF8E1
:101E00002C1B5FFA8EFE11F90E10002916D193F0EB
:101E1000010151EA0C01C9B200290FD15FF0010C98
:101E2000B04909785FFA8EFEBEF10505A94202DAD3
:101E3000BEF1050502E0AB490D786D1C1900C9B271
:101E400011EA0C0FC3D0DFF8741891F83B3000E0B2
:101E50005B1EDFF8641809789C465FFA8CFC6145CC
:101E600068D2C0B200281FD12100DFF8C4CADBB29B
:101E70001CF803C0C9B2614516D2DFF8B41ADBB250
:101E800011F803C0DFF8A81ADBB2194411F8011CDD
:101E9000BCEB010CBCF1080F06DB1E00DFF8900A5A
:101EA000DBB2C75C01209B1EC0B200280ED1DFF858
:101EB000801ADBB2C95CA4465FFA8CFC614505D28E
:101EC000DFF8700A46783B2701209B1EC0B200282D
:101ED0002CD0DFF85C1ADBB2C95CA4465FFA8CFC3C
:101EE000614523D2DFF8481ADBB2194411F8011C0E
:101EF000DFF83CCADBB21CF803C0614516D2DFF83C
:101F0000301ADBB2194411F8031CDFF824CADBB223
:101F10009C441CF801CC614508D2B3F10108DFF8FC
:101F2000101ADBB2194411F8019C01220100C9B258
:101F300011428DD0D2B2002A06D1DFF88007EDB26F
:101F400010F80580A9460122012000903B005BB2F9
:101F5000320052B2494649B2404640B200F0B0FBAE
:101F600000220020DFF8D01991F83B3000E05B1C24
:101F70001900DFF844C79CF800C0C9B2614565D2BA
:101F8000C0B200281ED12100DFF8A4C9DBB21CF8C2
:101F900003C0C9B2614515D2DFF89419DBB211F85C
:101FA00003C0DFF88C19DBB219444978BCEB010C93
:101FB000BCF1080F06DB1E00DFF87409DBB2C75C5A
:101FC00001209B1CC0B200280ED1DFF86419DBB2DF
:101FD000C95CA4465FFA8CFC614505D2DFF8540960
:101FE00006783B2701209B1CC0B200282AD0DFF8CE
:101FF0004019DBB2C95CA4465FFA8CFC614521D272
:10200000DFF82C19DBB219444978DFF824C9DBB2B8
:102010001CF803C0614515D2DFF81419DBB219446E
:10202000C978DFF80CC9DBB29C449CF801C061455B
:1020300008D213F10108DFF8F818DBB2194491F85F
:10204000019001220100C9B2114290D0D2B2002AFF
:1020500006D1DFF8E408EDB210F80580A9460122A8
:10206000002000903B005BB2320052B2494649B2B8
:10207000404640B200F024FBE4B23A2C08DBDFF823
:10208000BC080078002803D10120DFF8B0180870E0
:10209000DFF8A8080078002812D0DFF8900890F93F
:1020A0003700002805D0DFF8840890F932000028B6
:1020B00006D10020DFF8841808700020034908705A
:1020C000BDE8F387DC3AFF1F113DFF1F103DFF1FE6
:1020D000153DFF1FC40BFF1F943CFF1F123DFF1F48
:1020E000163DFF1F300DFF1FF8B500220020DFF85E
:1020F00050180978002940F0DD82DFF87C1B097850
:10210000012909D0C0F0D682032900F0A68139D375
:10211000042900F03382CDE228235FF03B0C01E07C
:10212000BCF1010CDFF81C180978E6465FFA8EFE58
:10213000714545D2DFF810185FFA8CFC11F90C10CC
:102140000029EDD16346DBB23B2B09D1DFF8FC1748
:102150000978002904D10121DFF8F0C78CF80010BC
:10216000DFF8E817097800292AD0DBB23B2B27D00B
:10217000DFF8C41791F83B10052921DB0220DFF8B6
:10218000F81A087001204F243B250021DFF8C00712
:102190000078002840F0EC80DFF8B807C07B00280A
:1021A00000F0DD80DFF8AC07C079002800F0A080E7
:1021B0000122DFF8A0070779DFF898074679CEE01B
:1021C000DFF8741791F83BC001E01CF1010C614687
:1021D000DFF8E4E49EF800E0C9B2714560D2C0B215
:1021E000002824D11900DFF848E75FFA8CFC1EF8BC
:1021F0000CE0C9B271451AD2DFF834175FFA8CFCD3
:1022000011F80CE0DFF828175FFA8CFC614449787C
:10221000BEEB010EBEF1090F09DB01206446DFF8B9
:1022200010175FFA8CFC11F80C501CF1010CC0B2B5
:1022300000280ED11900DFF8F8E65FFA8CFC1EF8D2
:102240000CE0C9B2714504D30120DFF8E8160C7820
:102250003B25C0B20028B8D0DFF8D4165FFA8CFC5A
:1022600011F80C109E465FFA8EFE7145ADD2DFF874
:10227000C0165FFA8CFC11F80CE0DFF8B4165FFAB8
:102280008CFC61444978BEEB010EBEF1060F9CDB6D
:1022900001226746DFF898065FFA8CFC10F80C60A4
:1022A000D2B2002A15D101221E26DFF8D009F6B2DB
:1022B000805D01F0DFFB00225FF0804301F0DCF97C
:1022C00002000B000020094901F0E2FB01F0B4FB21
:1022D0000700002000902B005BB2220052B23100B8
:1022E00049B2380040B200F0EBF9E3E100004440AD
:1022F000DFF86006C07A002807D00122DFF8540614
:10230000077ADFF85006467A29E0DFF84806007BB6
:10231000401C00E0401C0200DFF89C331B78D2B266
:102320009A421CD2DFF80826C0B202445278DFF885
:102330000036C0B21B5C9A42ECD2DFF8F425C0B282
:1023400002441279DFF8E835C0B203445B789A4260
:10235000E0D201220700DFF8D825C0B2165CDFF812
:10236000F405C07B002803D10120DFF8E4251070BC
:10237000DFF8DC050078002809D00122DFF8B80575
:1023800090F83B701037DFF8A805FFB2C65DDFF8A4
:10239000C0050078002819D0DFF8440A90F93B0006
:1023A000012805D0DFF8A00590F93B0001280DD1E8
:1023B000DFF8A005C079002808D1DFF89805C07AB9
:1023C000002803D10320DFF8B0281070DFF884055F
:1023D000C079002812D1DFF87C05C07A00280DD121
:1023E000DFF87005C07B002808D1DFF86805C07CE5
:1023F000002803D10120DFF8EC2910703B2007E012
:10240000DFF82825C0B21256032A00D1491C401E0D
:10241000DFF8302512780300DBB29A42F0D3DFF800
:10242000C409007800280BD0DFF82805C07C0028FC
:1024300002D1C9B20A2903DB0320DFF83C18087077
:10244000012000902B005BB2220052B2310049B251
:10245000380040B200F034F92CE10023DFF8F41426
:10246000C97C002908D0DFF880190978002903D138
:102470000121DFF874291170DFF86C19097800293F
:102480006FD03B2107E0DFF8A424C9B25256012ADD
:1024900000D15B1C491EDFF8AC2412780E00F6B2A6
:1024A000B242F0D30122DFF8901491F83B707F1D07
:1024B000DFF87C14FFB2CE5DDFF89814C97C0029E8
:1024C00007D00120DFF88C04047CDFF88804457C09
:1024D0003BE07A4991F83B2000E0521E76490978AA
:1024E00094465FFA8CFC614515D2DFF84414D2B2F1
:1024F00011F802C0DFF83814D2B2114411F8011CEF
:10250000BCEB010CBCF1060FE7DB01201400DFF887
:102510002014E4B20D5DC0B2002803D1DFF814141A
:102520004C783B25C0B200280FD1DFF8B40890F9F1
:102530003B00002809D1DFF8A80890F930000128F5
:1025400003D10420DFF830170870DBB2102B08DB52
:10255000DFF80004C079002803D00420DFF8181742
:102560000870012000902B005BB2220052B23100B3
:1025700049B2380040B200F0A3F89BE01E21DFF81A
:102580006C080078002808D1DFF8C803C07900285B
:1025900003D00120DFF854281070DFF850080078CD
:1025A00000287BD00120DFF88C0304783B253B22F8
:1025B00000E0521EDFF88C0300781300DBB2984273
:1025C0000ED2DFF88403D2B280560028F1D1DFF8B2
:1025D0007803D2B2104410F9010C0128E9D1511E40
:1025E000DFF87003C079002807D00122DFF8640308
:1025F0000779DFF86003467905E001224E1FDFF816
:102600003803F6B2875DC9B2332905DBDFF838033A
:1026100090F93400012825D0DFF82C0390F932001E
:1026200001283BD1DFF8C80790F83210DFF84C06DC
:1026300090F83200091A012909DBDFF8B40790F895
:102640003210DFF8380690F83200081A08E0DFF898
:102650002C0690F83210DFF8980790F83200081A2C
:1026600005281BDA0020DFF88C1708700020DFF83F
:10267000DC1208700020DFF8D81208700020DFF8A4
:10268000681708700020DFF8641708700020DFF872
:10269000541708700120DFF8E01508700020009042
:1026A0002B005BB2220052B2310049B2380040B276
:1026B00000F006F8F1BD0000310DFF1F000CFF1FF8
:1026C0002DE9F0412DED028B0C0015001E00401B82
:1026D000311B9FED948A49B2002902D19FED918A66
:1026E0000BE040B200EE100AB8EEC00A49B200EEAC
:1026F000901AF8EEE00A80EE208ADDF8208037009C
:10270000FFB217E08849FFB2502202FB07F21144E2
:10271000C0B200220A54401EDFF8DC16FFB2C95DC9
:102720000200D2B29142EDD30220DFF8B416FFB21C
:10273000C8557F1E3800C0B2210049B200B209B2AC
:102740008842C0F2EA805FFA88F8B8F1000F76D1CB
:1027500076B2FFB2F01B00EE100AB8EEC00A20EE0F
:10276000080A10EE100A01F005FA02000B00002022
:10277000DFF8881601F0A4F801F05EF940196E49FF
:10278000FFB2C855FFB23B2F10D16B48FFB2C05704
:1027900040B200284ED46449FFB2502202FB07F237
:1027A000114440B200220A54401EF1E75E48FFB2D5
:1027B000502101FB07F108445F49FFB2C95D0022C7
:1027C00042545D48FFB2C15D5B48FFB23844407877
:1027D000091A012908DB5848FFB2C15D5648FFB20B
:1027E00038444078081A07E05348FFB2384441782B
:1027F0005148FFB2C05D081A02281BDBB5EE408AC3
:10280000F1EE10FA16DD4C48FFB238444078401C17
:1028100009E04549FFB2502202FB07F21144C0B261
:1028200000220A54401C0100434AFFB2D25DC9B2E3
:102830009142EED302204449FFB2C85579E776B2FF
:10284000FFB2F01B00EE100AB8EEC00A20EE080A34
:1028500010EE100A01F08EF902000B000020DFF8E4
:10286000A01501F02DF801F0E7F84019DFF8881500
:10287000FFB2C855FFB23B2F12D1DFF87C05FFB283
:10288000C05740B25028BFF64FAF2749FFB2502281
:1028900002FB07F2114440B200220A54401CF0E748
:1028A0002148FFB2502101FB07F10844DFF8481529
:1028B000FFB2C95D00224254DFF83C05FFB2C15DA2
:1028C000DFF83405FFB238444078091A01290ADBE1
:1028D000DFF82405FFB2C15DDFF81C05FFB2384404
:1028E0004078081A09E0DFF81005FFB23844417853
:1028F000DFF80405FFB2C05D081A0228FFF614AF26
:10290000B5EE408AF1EE10FA7FF50EAFDFF8E8047D
:10291000FFB238444078401EFEE6BDEC028BBDE8B5
:10292000F081000000000000C425FF1F583CFF1F7D
:10293000903BFF1F3C0CFF1F183BFF1F173DFF1F65
:10294000123DFF1F300DFF1FE03BFF1F183DFF1F13
:10295000193DFF1F943CFF1F2DE97043DFF8AC04C5
:1029600090F827000A380A2190FBF1F6DFF8980466
:10297000007833285CDBDFF88C04DFF88C140978EE
:10298000405C01F077F80022DFF8843400F098FF13
:1029900001F014F9DFF87C140860DFF8780490ED9A
:1029A000000AB5EE400AF1EE10FA1ADDDFF8640411
:1029B000006801F0DFF804000D00B04890F83B001B
:1029C00001F058F800225FF0804300F055FE22002D
:1029D0002B0000F075FF01F0F1F8DFF83814086003
:1029E000D4E0DFF8300490ED000AB5EE400AF1EED5
:1029F00010FA40F1CB80DFF81C04006801F0BAF84F
:102A000004000D009D4890F83B0001F033F80022CF
:102A10005FF0804300F030FE02000B002000290030
:102A200001F036F801F0CAF8DFF8E8130860ADE00D
:102A3000DFF8D40300781A287ADBDFF8C803DFF860
:102A4000C81309780844407901F014F80022DFF82F
:102A5000AC3301F0E7F804000D00DFF8A803DFF85D
:102A6000A81309780844807A01F004F80022DFF8FE
:102A70008C3301F0D7F822002B0000F021FF002258
:102A8000DFF8943300F01CFF01F098F8DFF88413AE
:102A90000860DFF874030078242877DBDFF874031C
:102AA00090ED000AB5EE400AF1EE10FA1ADDDFF8FB
:102AB0006403006801F05EF804000D006F4890F8B0
:102AC000280000F0D7FF0022DFF8503300F0D4FDDB
:102AD00022002B0000F0F4FE01F070F8DFF8341350
:102AE000086053E0DFF82C0390ED000AB5EE400AD1
:102AF000F1EE10FA4AD5DFF81C03006801F03AF84D
:102B000004000D005D4890F8280000F0B3FF00229B
:102B1000DFF8083300F0B0FD02000B0020002900B0
:102B200000F0B6FF01F04AF8DFF8E81208602DE087
:102B3000DFF8D002DFF8D01209780844807A00F07C
:102B400099FFDFF8DC22DFF8DC3201F06BF80400DB
:102B50000D00DFF8B002DFF8B01209780844007DFC
:102B600000F088FF5FF03332DFF8BC3201F05AF832
:102B700022002B0000F0A4FE0022DFF89C3200F0BF
:102B80009FFE01F01BF8DFF88C120860DFF884026A
:102B900090ED000ADFED7B0AB4EE600AF1EE10FA68
:102BA00004DBDFF87002DFF884120160DFF86402F2
:102BB00090ED000ADFED880AB4EE600AF1EE10FA3B
:102BC00002D5944884490160924890ED000AB5EE20
:102BD000400AF1EE10FA03DD8E4890ED000A04E0A1
:102BE0008C4890ED000AB1EE400ADFED7C0AB4EEAD
:102BF000600AF1EE10FA02D5864800210160F6B2B3
:102C0000300000F037FF0022894B01F00BF8002262
:102C1000884B00F055FE80468946F6B2300000F041
:102C200029FF5FF03332804B00F0FCFF04000D0001
:102C3000F6B2300000F01EFF22002B0000F0F2FF81
:102C400042464B4600F03CFE00F0B8FF7A4908606F
:102C50007A480021016000F013F8794890F90000EB
:102C6000002803D164207749086002E032207549CA
:102C70000860BDE870830000340DFF1FC40BFF1F08
:102C8000624890F82700614991F82810081802213D
:102C900090FBF1F06C4991F90010002902D0022953
:102CA0002ED05AE0C0B214280FDB684909780829F1
:102CB0000BDA00206249087064480078401C6349C0
:102CC000087000206249087019E0C0B214280DDBBA
:102CD0005E480078082809D1022059490870082068
:102CE0005A49087000205A49087008E000205449E9
:102CF00008700020554908700420554908702CE0E0
:102D0000C0B20C280FDA5249097804290BDA0220E4
:102D10004B4908704E480078401C4D49087000200F
:102D20004A49087019E0C0B20C280DDA484800780A
:102D3000042809D100204249087004204449087041
:102D400000204249087008E002203D490870002038
:102D50003F49087008203D4908703E4890F900003E
:102D6000002803D0022803D001D301E000E0FFE7F0
:102D7000334800783449087037480078354908707E
:102D8000704700000100204230B4002300243722A5
:102D900005E0DBB2222B00DB641C521E0023D2B202
:102DA0002E2A11DB1421C9B23C29F2DA2B48D2B207
:102DB000502505FB02F52844C9B2405C002800D02C
:102DC00000E05B1C491CEEE7E4B2082C01DB0120AB
:102DD00000E0002030BC7047000020C20100803FAE
:102DE0001C3CFF1F1C3DFF1F1A3DFF1F1B3DFF1F0B
:102DF000DC3AFF1F113DFF1F000CFF1F0000E03FEA
:102E00000000E0BF543BFF1F300DFF1F903BFF1F32
:102E100000C043C0B425FF1F00C053C000000840DD
:102E20009A9999999999D93F3333E33F0000204209
:102E30000000044000001840B825FF1FBC25FF1FFC
:102E4000143DFF1FC025FF1F133DFF1F1D3DFF1F2A
:102E50001E3DFF1F320DFF1F330DFF1FC425FF1F37
:102E600080B5002344F620620021012001F075F8AE
:102E7000002344F620620121012001F06EF801BD1B
:102E800080B500220021012001F022F90022012159
:102E9000012001F01DF901BD80B50C48006800F06B
:102EA00017F8642800D2642040F2F511884201D35B
:102EB0004FF4FA7002000021012001F009F900220C
:102EC0000121012001F004F901BD0000C025FF1F10
:102ED0007047FF0080B540F23C536422002100207F
:102EE00001F03BF801BD000080B5264890ED000AD6
:102EF00000F020F8DFED1D0A30EE200ADFED1C0A9D
:102F0000B4EE600AF1EE10FA01D59FED190ADFED7B
:102F1000190AB4EE600AF1EE10FA01DB9FED160A11
:102F2000BCEEC00A10EE102A0021002001F0D0F8FB
:102F300001BD0000F0EE400A9FED101A9FED100A4F
:102F4000114890ED000A20EE200A1048D0ED001A3A
:102F500081EE811A0E48D0ED001A70EEE11A01EEF2
:102F6000210A0B48C0ED000A704700000080A7440A
:102F700000006B440180D9440080D944CDCCCC3DC5
:102F800000000000B425FF1FB825FF1FBC25FF1F50
:102F9000A83CFF1F38B5040008250121632001F07B
:102FA000AEF900214F2001F0AAF914E000215320CE
:102FB00001F0A5F905E02006F8D50121532001F024
:102FC0009EF901214F2001F09AF900BF00214F2006
:102FD00001F095F964002800451EC0B20028EAD12E
:102FE00031BD000038B5040008250021632001F040
:102FF00086F900214F2001F082F914E000215320CE
:1030000001F07DF905E02006F8D50121532001F0FB
:1030100076F901214F2001F072F900BF00214F2005
:1030200001F06DF964002800451EC0B20028EAD105
:1030300031BD10B50400B1F15000C0B2FFF7D2FFAE
:103040002000C0B2000950F01000C0B2FFF7CAFF64
:1030500014F00F0454F001042000C0B2FFF7C2FFC7
:1030600010BD70B50400002508E02000C0B2FFF7D5
:1030700091FF761CF6B2802EF7DB6D1CEDB2082DA9
:103080000CDAB5F15000C0B2FFF7ACFF0120FFF73A
:10309000A9FF1020FFF7A6FF0026EBE770BD07E0B1
:1030A00040F2375211004A1E89B20029FAD1401E5F
:1030B00080B20028F4D170472DE9F84304000D00D8
:1030C00016005FF000085FF00009002716E0DFF847
:1030D00054025FFA88F8062101FB08F108445FFA00
:1030E00089F910F80900FFF755FF19F101095FFA96
:1030F00089F9B9F1060FEADBA41D7F1CFFB2F05D70
:10310000002811D0FFB2F05DB0F12008E4B27F2CAE
:1031100001DB00246D1C2900C9B22000C0B2FFF7FA
:1031200088FF5FF00009E2E7BDE8F18380B5012286
:1031300001214F2001F056F801220121532001F016
:1031400051F801220121612001F04CF801220121F6
:10315000632001F047F801214F2001F0A2F801217E
:10316000532001F09EF80121612001F09AF801211D
:10317000632001F096F801214F2001F0C0F80021F2
:10318000612001F0BCF83220FFF789FF01216120A6
:1031900001F0B5F8AE20FFF725FF0020FFF722FF72
:1031A0001020FFF71FFF4020FFF71CFF8120FFF7D3
:1031B00019FFCF20FFF716FFA120FFF713FFC8204C
:1031C000FFF710FFA720FFF70DFFA820FFF70AFF6A
:1031D0003F20FFF707FFD320FFF704FF0020FFF792
:1031E00001FFD520FFF7FEFE8020FFF7FBFED92070
:1031F000FFF7F8FEF120FFF7F5FEDA20FFF7F2FE09
:103200001220FFF7EFFEDB20FFF7ECFE4020FFF778
:10321000E9FE2020FFF7E6FE0220FFF7E3FE8D2007
:10322000FFF7E0FE1420FFF7DDFEA420FFF7DAFE33
:10323000A620FFF7D7FEAF20FFF7D4FE0020FFF750
:1032400010FF00210020FFF7F4FE4D4A002100206E
:10325000FFF732FF01BD000010B441E000230B7006
:103260000B78047814F00104E3180B70401C0B7801
:103270000478640014F00204E3180B70401C0B780F
:103280000478A40014F00404E3180B70401C0B78BD
:103290000478E40014F00804E3180B70401C0B7869
:1032A0000478240114F01004E3180B70401C0B7810
:1032B0000478640114F02004E3180B70401C0B78B0
:1032C0000478A40114F04004E3180B70401C0B7840
:1032D0000478E40154FA83F30B70401C491C083A4B
:1032E000002ABBD110BC704730B4002013E0C0B23C
:1032F000402303FB00F30B44D2B2224CD2B2502540
:1033000005FB02F52C44C0B2245C9C54521CD2B282
:103310003C2AECDB401CC0B2502801DA0022F6E760
:1033200030BC7047186C000038B517491548FFF7D6
:10333000DBFF4FF4A05215491348FFF78DFF00241F
:103340000CE01248EDB2E90051FA84F1405CFFF75D
:1033500021FE6D1CEDB2502DF3DB641CE4B2082C91
:103360000CDAB4F15000C0B2FFF73CFE0120FFF7C9
:1033700039FE1020FFF736FE0025EBE731BD0000D7
:1033800020770000C425FF1F340FFF1F3423FF1FC9
:10339000012210F01F018A40764940B2400941F8ED
:1033A00020207047012210F01F018A40724940B26C
:1033B000400941F82020704780B57049086000F04E
:1033C00081F80028FBD000F002F8002002BDE0B533
:1033D000012002904FF416700190002000901B23F2
:1033E000664802686649002001F02EF865480068CA
:1033F00040084000634908605720FFF7D3FF624848
:10340000006850F00100604908600020FFF7C0FF2D
:103410005E491B2001F00CF95D491D2001F008F9FF
:1034200007BD80B55B4890F90000042818D103203F
:10343000584908705720FFF7B5FF5FF00060564904
:1034400008605048006850F001004E4908605FF085
:10345000006051490860494800685049086005E02B
:103460005720FFF79FFF02204A49087001BD012045
:10347000484908704448006850F00100424908601B
:10348000704780B50420434908705FF0FF3042491F
:1034900008605720FFF77CFF0EE03E4890F90000DF
:1034A000022809D104203B4908705FF0FF303A49F7
:1034B00008605720FFF76CFF364890F9000001289C
:1034C000EBD101BD10B582B0002400208DF80000C2
:1034D00001F019F98021122001F028FA002804D106
:1034E0002F4801F0B3FA002043E0322001F0DDFA6A
:1034F0000B220121684601F051FA002804D1294825
:1035000001F0A4FA002034E09DF80010264801F0F4
:103510009DFA26480178264801F098FA9DF80000A7
:10352000212825D1002400E0641C20001F490978CF
:1035300080B289B2884216D21E48A4B200EB440081
:1035400041781C48A4B210F8140080B201F0EEF9E2
:103550000028E9D11748A4B210F81410164801F059
:1035600075FA002005E0154801F070FA012000E02E
:10357000002016BD00E100E080E100E0B83CFF1F44
:1035800050F00F400C8000402480004002010200F7
:1035900012010900350DFF1FA0900440109000405B
:1035A000A47600000C770000B8750000360DFF1FF0
:1035B000547600004C0CFF1FBC760000DC75000048
:1035C00038B4030022480088ADF8000039E00878DC
:1035D000491C6C46C0B20500ED11645D1C705B1C9B
:1035E0006C46C0B2C0F38015645D1C705B1C6C46F9
:1035F000C0B2C0F34015645D1C705B1C6C46C0B269
:10360000C0F30015645D1C705B1C6C46C0B2C0F357
:10361000C005645D1C705B1C6C46C0B2C0F38005C5
:10362000645D1C705B1C6C46C0B2C0F34005645DF9
:103630001C705B1C6C46C0B210F00100205C18705E
:103640005B1C1000421E0028C1D131BC704700BF76
:10365000D22E0000C11768B14840401AB0FA80F27B
:103660009040D21CC907C2F5846241EA025202EBC3
:10367000D021400570470000F0B540F2FF7581EAA7
:10368000030C0CF0004C15EA11541DBF15EA13573A
:10369000AC42AF42E5E0BC41C1F31301C3F31303F5
:1036A000801A994143F4801304D2641E40004941BA
:1036B00080185941C90241EA5051B1FBF3F603FBAE
:1036C0001611A2FB0675D7EBC020A94102D2761EC7
:1036D00080185941C90241EA5051B1FBF3FE03FB86
:1036E0001E11A2FB0E75D7EBC020A94103D2AEF18B
:1036F000010E80185941890241EA9051760546EA47
:103700008E2EB1FBF3F603FB1611A2FB0675D7EB69
:103710008020A94102D2761E80185941C90241EA8F
:1037200050514EEA060EB1FBF3F603FB1611A2FB55
:103730000675D7EBC020A94102D2761E80185941E8
:10374000C90241EA5051B1FBF3F703FB1711A2FB89
:103750000735D3EBC020A94167F100070CBF004239
:1037600047F0010766F3D5274FEA1E31B80814F574
:10377000806412DDBD0775F1004250EB0E5051EB35
:10378000045111F5801F5CBF41EA0C01F0BD4CF003
:103790007F6141F0E0410020F0BDBD076D0840EAC7
:1037A0000E5041F48011D4F10104B4F120060ADA7C
:1037B000C4F120060200E04001FA06F3E14018439C
:1037C000B24015430EE0342C13DCC6F1200445EA68
:1037D00040056D0820FA06F2154321FA06F0A140D3
:1037E0000D43002175F1004250F1000051EB0C0136
:1037F000F0BD00205FEA0C01F0BDCFB992185B412B
:10380000B3FA83F704BFB2FA82F6BF190B3FB7F1E0
:1038100020062FBF02FA06F3BB40C7F1200622FAAA
:1038200006F638BF3343BA401CB1E419641E33E7CF
:103830007F4231F00041B1FA81F404BFB0FA80F662
:10384000A4190B3CB4F120062FBF00FA06F1A140E9
:10385000C4F1200620FA06F638BF3143A0403C1BD5
:103860001AE7AC421ABF05EA1357AF4212E050EA1A
:1038700041061CBF52EA4306BFE750EA4107304603
:1038800061461CBF41EA0551F0BD52EA430C08BF36
:10389000C143F0BD00204FF4001616EB410F98BF56
:1038A00016EB430F08BF16EB410F24BFC14305E0E1
:1038B00016EB430F0CBF61464CEA0551F0BD00000A
:1038C00070B44FF0004591EA030F40F1E9806B407E
:1038D000841A71EB030604D26E40001BB141121929
:1038E00073414FF4001C1CEB410F34BF7CEB4306CB
:1038F00082E00C0DA4EB1356362E7BDC012E45EA3C
:10390000C32341DC43EA525312BFD20292025B0846
:10391000240545EAC12141EA5051D2EBC02099412A
:1039200025D407D1B0FA80F610FA06F162D0002053
:10393000203608E0B1FA81F6B140C6F1200220FA43
:1039400002F21143B0404FEAF474B4EB465434F041
:1039500001064FEA74040AD8D6F50016760D04F075
:103960000044F04061FA06F25040F1404840C00A7D
:1039700040EA415021F0004128BF5FEA500550F174
:10398000000044EBD12135E0DB0A45EAC121C90A38
:10399000B6F120050EDD42EA0242120CC5F1200606
:1039A00003FA06F6EB4042EA06056D42984161F1E2
:1039B00000010DE062FA06F5F240554063FA06FC9C
:1039C00082EA0C02F3405A406D42904161EB0301E0
:1039D00011F4801F05D1641E620502D06D004041C4
:1039E000494121F48011430875F1004350F1000072
:1039F00041EB045170BC70471CEB410F15D223F012
:103A0000004352EA43060BD04FEA4C0CBCEB410F8B
:103A100004D80C0D661E342EB7DDEBE7801A9941F1
:103A200050EA410608BF0021E4E708BF1CEB430F42
:103A300028BF6FF00001DDE7C1F30A5340F2FE3208
:103A40009B1A14DDD3F120034FEAE17208DDC902AD
:103A500041EA505141F00040D84080185040704732
:103A600003F2E13010B1D24382F0004070470020F1
:103A700070470000014648B1B0FA80F18840C91C87
:103A8000C1F58461090501EBD021400570470000B4
:103A900070B44FF0004591EA030F7FF519AF6B400A
:103AA000841A71EB030603D2001BB1411219734152
:103AB0004FF4001C1CEB410F34BF7CEB430442E08D
:103AC0000C0DA4EB1356352E4FDC45EAC323DB0A5D
:103AD00045EAC121C912B6F120050DDD63FA05F6EC
:103AE000EB4086EA0305124218BF45F00105C018F5
:103AF00051F100010CD213E062FA06F5F240554094
:103B0000F3415A40B340F3405A408018594107D31B
:103B100049085FEA30005FEA350528BF45F0010536
:103B200001F58011420875F1004250F1000041EBAF
:103B300004514E0016F5001F70BC38BF70470020BE
:103B4000090D090570471CEB410F10D252EA4306DC
:103B50000BD0BCEB410F05D80C0DAB43661E342EC9
:103B6000B6DD02E0AB438018594170BC704770BCB1
:103B700070470000C0F3C75181B1FF2906D0C110C2
:103B8000400721F0E04101F16051704741020CBF54
:103B900040F4E0016FF000410020704700F0004168
:103BA00000020AD0B0FA80FC00FA0CF001F160517A
:103BB000A1EB0C5101EBD0214005704701F0004210
:103BC0008B1AA3F16051B1F5801F0ADBB1F17F6F51
:103BD0001FD242EAC102C10071F1004142EB5070B4
:103BE00070470B15C3F10903212B10D2890241EA5A
:103BF000905180020128494141F0004121FA03F02F
:103C0000C3F12003994071F1004150417047100009
:103C100070476FF0000013EB103F5CBF000E42EAEC
:103C2000C0507047B0B581EA030C0CF0004C40F274
:103C3000FF7515EA11541DBF15EA1357AC42AF4288
:103C400031E0E41923EA455343F48013C90241F0FB
:103C5000004141EA505EC702A7FB02100029A2FB07
:103C60000E21E3FB6720E3FB6E0118BF42F0010267
:103C7000A4F580640F0302D252004041494154F13F
:103C800001046CDD470872F1004250F1000051EB75
:103C90000451A1F580115CBF41EA0C01B0BD4CEAB2
:103CA00005510020B0BD05EA1357AC4214BFAF4226
:103CB00041E050EA410E1CBF52EA430E02E0614669
:103CC0000020B0BD24423C441BD15FEA070EF6D071
:103CD000090302BF01460020AEF1140EB1FA81F7CC
:103CE000AEEB070401FA07FE0C37C7F1200100FA1A
:103CF00007F7C8404EEA000E23EA455343F4801309
:103D0000AAE733F00043B3FA83F704BFB2FA82FEA6
:103D100077440B3FE41BB7F1200E2FBF02FA0EF3DE
:103D2000BB40C7F1200E22FA0EFE38BF43EA0E0355
:103D3000BA40641C8AE750EA410E14BF52EA430EAF
:103D40006FF000014FF4001717EB430F8ABF1946BD
:103D500017EB410FB5E74CEA05510020B0BDD4F197
:103D60000104B4F120070FDAC4F12007520828BF7C
:103D700042F0010210FA07F501FA07F7E1BF2A4302
:103D8000E0403843E1400FE0352C98DCC7F12004D7
:103D900052EA400220FA07F218BF42F0010231FA5B
:103DA00007F0A1400A43002172F1004250F10000E7
:103DB00051EB0C01B0BD000080B540B2002806D028
:103DC000022867D04BD3032800F07F80C4E0DFF8DF
:103DD000FC03006850F08070DFF8F023106049B2F7
:103DE00000290BD0022915D00ED304291ED017D3D9
:103DF000062927D020D307292AD02FE04FF480614D
:103E0000412000F015FCA7E04FF48061422000F053
:103E10000FFCF8E74FF48061432000F009FCF2E763
:103E20004FF48061442000F003FCECE74FF4407154
:103E3000072000F0FDFBE6E74FF48061652000F00D
:103E4000F7FBE0E74FF48061662000F0F1FBDAE772
:103E50004FF48061672000F0EBFBD4E77CE0DFF8F3
:103E60006C03006850F00070DFF86023106049B206
:103E7000002902D0012906D00BE04FF44071082040
:103E800000F0D6FB68E04FF44071092000F0D0FB51
:103E9000F8E761E0DFF83803006850F08070DFF881
:103EA0003023106049B2002902D0012906D00BE06E
:103EB0004FF440710A2000F0BBFB4DE04FF440711D
:103EC0000B2000F0B5FBF8E746E0DFF804030068DC
:103ED00050F00070DFF8F822106049B200290BD0D2
:103EE000022915D00ED304291ED017D3062927D0B6
:103EF00020D307292AD02EE04FF4C061852000F09E
:103F000097FB28E04FF4C061862000F091FB22E08F
:103F10004FF4C061872000F08BFB1CE04FF4C061C0
:103F2000882000F085FB16E04FF4C061892000F086
:103F30007FFB10E04FF4C0618A2000F079FB0AE0BB
:103F40004FF4C0618B2000F073FB04E04FF4C061BC
:103F50008C2000F06DFBFFE701BD2DE9F047040068
:103F60000D0090461E0064B2002C11D064B2012CEA
:103F700002D064B2022C02D16DB2022D08DB64B211
:103F8000032C05D040F28511DFF8480200F0B9FD9E
:103F9000290049B2200040B2FFF70EFFDFF83802D7
:103FA000D0F800A04FF47A7000FB0AFA5046000CDB
:103FB000B0FBF8F1002700E07F1C89B2080038410F
:103FC0000128F9DAFFB2082F05DB4FF4D071DFF8D2
:103FD000040200F096FD3AFA07FABAFBF8F189B24A
:103FE000DFF8F80164B240F8241064B2002C05D068
:103FF000022C13D00AD3032C17D01DE089B2481C21
:10400000464342F21070B6FBF0F915E089B2481C45
:1040100046434FF47A70B6FBF0F90DE089B2481CC4
:1040200046436420B6FBF0F906E089B2481C4643DB
:104030006420B6FBF0F9FFE7DFF8A40164B250F8A2
:1040400024006DB200EBC500DFF8942164B252F891
:1040500024206DB202EBC502D26832F00402C260C5
:10406000DFF87C0164B250F824006DB200EBC500AB
:104070002822C260FFB217F0070757F00807DFF8E1
:10408000600164B250F82400076089B2DFF8500183
:1040900064B250F8240081600020DFF8441164B25B
:1040A00051F82410C864DFF8380164B250F82400D5
:1040B0006DB200EBC5001FFA89F9C0F8109000201E
:1040C000DFF81C1164B251F824104860BDE8F08795
:1040D000F8B504000D001600002064B2002C11D0C9
:1040E00064B2012C02D064B2022C02D16DB2022D56
:1040F00008DB64B2032C05D04FF4F371DFF8D40071
:1041000000F0FFFC64B2002C05D0022C19D00DD3B6
:10411000032C1FD027E042F21170864205D34FF4E2
:10412000F671DFF8B00000F0ECFC1CE040F2E93082
:10413000864205D34FF4F871DFF8980000F0E1FCF7
:1041400011E0652E05D34FF4FA71DFF8880000F016
:10415000D8FC08E0652E05D340F2F911DFF87400B1
:1041600000F0CFFCFFE7DFF8740064B250F82400E1
:1041700064B2002C05D0022C11D009D3032C14D02A
:1041800019E0401C464342F21070B6FBF0F712E013
:10419000401C46434FF47A70B6FBF0F70BE0401C2E
:1041A00046436420B6FBF0F705E0401C464364201C
:1041B000B6FBF0F7FFE7DFF8280064B250F8240000
:1041C0006DB200EBC5000761F1BD00003C8004400A
:1041D0003080044094730000B43CFF1F240FFF1F85
:1041E000180BFF1F70B506000D0014004FF480710E
:1041F0003000C0B200F01CFA6DB2002D15D17D4820
:10420000F6B23100491150F821007A49F6B2320075
:10421000521151F822104969012216F01F0612FAB4
:1042200006F631EA060646613AE07248F6B2310017
:10423000491150F821106F48F6B23200521150F86F
:1042400022004269012316F01F0083401A434A618D
:10425000E4B2002C12D16748F6B23100491150F88F
:1042600021000168012216F01F008240914361483D
:10427000F6B2761150F82600016011E05D48F6B202
:104280003100491150F821000168012216F01F0089
:10429000824011435748F6B2761150F8260001606B
:1042A00070BD49B2002915D15249C0B20200521165
:1042B00051F822104F4AC0B203005B1152F823207C
:1042C0005269012310F01F0013FA00F032EA0000D7
:1042D000486113E04749C0B20200521151F8221060
:1042E000444AC0B203005B1152F8232052690123F3
:1042F00010F01F0013FA00F010434861704738B502
:1043000005000C003B48EDB22900491150F821008E
:10431000406915F01F01C840C00703D46321364827
:1043200000F0EFFBE4B2002C12D13248EDB22900CC
:10433000491150F821000168012215F01F00824048
:1043400091432C48EDB26D1150F82500016011E049
:104350002848EDB22900491150F8210001680122D6
:1043600015F01F00824011432248EDB26D1150F844
:104370002500016031BD10B504001E48E4B22100E3
:10438000491150F82100406914F01F01C840C007CE
:1043900003D47B21184800F0B4FB1648E4B2210096
:1043A000491150F82100012114F01F0411FA04F4FE
:1043B000C46010BD10B504000E48E4B221004911DC
:1043C00050F82100406914F01F01C840C00703D510
:1043D0008C21094800F095FB0648E4B22100491100
:1043E00050F82100006914F01F04E04010F00100B3
:1043F00010BD0000280BFF1FEC73000038B5020051
:10440000920912F00702D2B25201103810F03F00A8
:10441000C0B2C400A418C9B214EBC100451E0CE020
:10442000002200212000C0B2FFF7DCFE4FF48171B2
:104430002000C0B200F0FCF8641C28002100C0B2CB
:10444000C9B28842ECD231BD2DE9F04705000E001B
:10445000170098469DF9204064B2002C02D15FF00D
:1044600001090DE064B2012C02D15FF0020907E0FE
:1044700064B2022C02D15FF0040901E05FF0100980
:1044800064B2002C05D15D48864202D35C48B0423C
:104490001DD264B2012C09D15848864206D359482E
:1044A000B04203D316F00300032810D164B2022CEB
:1044B00009D15248864206D35348B04203D316F07E
:1044C0000300002803D06121504800F01AFBDDF8FA
:1044D00024A0BAF5004F03D363214C4800F011FB30
:1044E0000A984B49096851F00201494A116049494B
:1044F000096851F00201474A116047496DB26A01EB
:104500008E5045496DB26A0111440F610021424A43
:104510006DB26B011A4491805FFA89F93E496DB220
:104520006A011144A1F8149064B2210211F4E0610F
:1045300064B214F007042143374A6DB26B011A4488
:10454000D18051464904490C334A6DB26B011A447B
:10455000D18251464904490C2F4A6DB26B011A446D
:10456000D1832E49096831F080012C4A11605FFA2D
:1045700089F929496DB26A011144C1F808900021F6
:10458000254A6DB26B011A44D160C00702D4DAF13A
:10459000000A01E05FF0000A1F486DB2690108449B
:1045A000C0F818A04CF20A001B496DB26A01114410
:1045B00088834046C0B24009313050F0800018492D
:1045C0006DB2485517494046C0B200F031F849462F
:1045D000C9B23000FFF712FF134800680121A9405B
:1045E00088431149086011480068012111FA05F556
:1045F00005430E480560BDE8F087000010F00F404D
:1046000013F10F4012F10F4010F10F40E47200005F
:10461000408004403C800440009000400080004006
:1046200000100240000101000C8000402480004086
:1046300010B42C4A13684FF400740200D2B252092D
:1046400094402343274A1360274AC0B203005B11FA
:1046500052F82330012410F01F029440C3F8A04008
:10466000214AC0B203005B1152F82320C0B210F0FF
:104670001F0042F8201010BC704710B4194A13688C
:104680004FF400740200D2B2520994402343154AF9
:104690001360154AC0B203005B1152F823300124A5
:1046A00010F01F029440C3F8A04031F4E0610E4ABC
:1046B000C0B203005B1152F82320C0B210F01F03F8
:1046C00052F8232012F4E0621143074AC0B20300FB
:1046D0005B1152F82320C0B210F01F0042F82010E6
:1046E00010BC704738800440980BFF1F01B404E0F1
:1046F000BDF80000401EADF80000BDF80000002825
:10470000F6D101B0704780B5012201211A20FFF7D0
:1047100069FD012201211920FFF764FD23211A20E0
:10472000FFF7ABFF23211920FFF7A7FF01BD80B5DD
:1047300001207A4908600120794908604FF4C87067
:10474000FFF7D4FF00207749086077480068002809
:1047500004D1012073490860002016E0012071494E
:10476000086000206D4908604FF4C870FFF7BEFF75
:1047700000206B4908606C480068002804D00120C4
:1047800068490860002000E0012002BD80B50020DB
:10479000634908600020614908604FF4C870FFF762
:1047A000A5FF01205E4908604FF4C870FFF79EFF27
:1047B00001205A4908604FF4C870FFF797FF01BD08
:1047C00080B50020564908604FF4C870FFF78EFF8F
:1047D0000020524908604FF4C870FFF787FF01209E
:1047E0004F4908604FF4C870FFF780FF00204C4924
:1047F00008604FF4C870FFF779FF01BD80B5002055
:10480000474908604FF4C870FFF770FF0120434923
:1048100008604FF4C870FFF769FF01204049086045
:104820004FF4C870FFF762FF00203D4908604FF465
:10483000C870FFF75BFF01BD80B5002038490860F4
:104840000020384908604FF4C870FFF74FFF01207F
:10485000334908604FF4C870FFF748FF32480068DA
:10486000002807D001202F49086000202C4908604B
:10487000002006E001202B4908600020284908603C
:10488000012002BD38B50500082417E000202349A7
:10489000086004E02806F9D50120204908606D0071
:1048A0004FF4C870FFF722FF01201D4908604FF444
:1048B000C870FFF71BFF0020194908602000441E44
:1048C000C0B20028E6D131BD38B50824002500204B
:1048D0001449086014E06D000020114908604FF48D
:1048E000C870FFF703FF01200D4908604FF4C8703E
:1048F000FFF7FCFE0C480068002801D055F00105C8
:104900002000441EC0B20028E5D1012005490860FE
:10491000002003490860EDB2280032BD6400FE4368
:104920006800FE43E402FE436402FE4370B50400E7
:104930000D0000262900C9B2200080B200F00AF85C
:10494000002805D1761CF6B2142EF3D1002000E029
:10495000012070BD38B504000D00FFF7E8FE002807
:1049600001D1002019E04220FFF78CFFFFF764FF20
:10497000002803D1FFF70AFF00200EE02000C0B29C
:10498000FFF780FFFFF758FF2800C0B2FFF77AFF5C
:10499000FFF752FFFFF7FAFE012032BDF8B5040021
:1049A0000D00160000273200D2B2290089B2200083
:1049B00000F00AF8002805D17F1CFFB21E2FF2D1AB
:1049C000002000E00120F2BD70B505000C001600CB
:1049D000FFF7ADFE002801D1002036E04220FFF7AE
:1049E00051FFFFF729FF002803D1FFF7CFFE00207A
:1049F0002BE03000C0B2FFF745FFFFF71DFFFFF7C8
:104A0000C5FEFFF794FE002801D100201DE04320E1
:104A1000FFF738FFFFF710FF002810D1FFF7B6FEB1
:104A2000002012E0FFF7CCFE07E0FFF74DFF2870F3
:104A3000A4B2012CF6D1FFF7E1FE6D1C641EA4B2F6
:104A4000002CF2D1FFF7A2FE012070BD0EB4C0B55C
:104A5000024603A800210190009101AB0121044806
:104A600078440C3000F0E0F806BC5DF810FB00BFA5
:104A7000652C000010B50400002C15D0B4F1807F27
:104A800003D329210F4800F03CF800200E490860AC
:104A90000E48046000200E49086005200A4908609D
:104AA00009480068C003FBD510BD10B5040003E041
:104AB00008480068FFF7DEFF2000441E0028F7D1F9
:104AC00010BD00008872000010E000E014E000E07B
:104AD00018E000E0AC3CFF1FDFF800F0690DFF1F9D
:104AE000DFF800F08D0DFF1FBFF34F8F46480168C0
:104AF00011F4E0614548014343480160BFF34F8F23
:104B0000FEE738B504000D00002000F095FE2A00F5
:104B100021003F48FFF79AFF002000F0A9FE4FF464
:104B20007A70FFF7C2FFF2E710B50400210049B226
:104B3000012000F0B8FF200010BD10B500240420B3
:104B400000F0CAFF042000F0FBFF002840D1002045
:104B500000F072FE0CE02F48FFF778FFFFF7BCFF74
:104B60006420FFF7A2FF0020FFF7BAFFFFF7BCFFAA
:104B7000042000F0E5FF012800D10124002000F00E
:104B800077FE2548FFF762FF4FF4FA70FFF78DFFBD
:104B9000E4B2012CECD1042000F0D2FF0028E7D1D0
:104BA00005E0002000F064FE6420FFF77EFF042093
:104BB00000F0C6FF0028F4D0042000F0C1FF012857
:104BC000C9D1002000F054FE3220FFF76EFFF3E75A
:104BD00010BD10B511480468012000F02DFE012021
:104BE00000F046FE0E48E4B20F2101FB04F100EB99
:104BF0000102E4B221000B48FFF728FF4FF47A705E
:104C0000FFF753FFEBE700000CED00E00400FA05AE
:104C10009475000034760000F876000004ED00E0A2
:104C20001004FF1F307500002DE9F0439FB081464E
:104C30002698DFF804898DF83B00174600201E46B1
:104C400002910B900FF688344FF0FF350AE017F809
:104C5000011B0298C8470028029000F09A800B9828
:104C6000401C0B90387850B12528F0D1002000214D
:104C7000059006910790089109900A9103E00B981E
:104C80009AE041F0010117F8010F2028F9D02328FC
:104C90000DD02B2804D02D2806D030280AD07AE059
:104CA00041F0020189B2EEE741F00401FAE741F078
:104CB0000801F7E741F01001F4E700200D9009E04A
:104CC0000D98404505DA00EB800302EB4302303AD1
:104CD0000D927F1C3A78A2F130000A28F0D33A787E
:104CE0002E2A18BF0C9523D117F8010F2A2807D1B7
:104CF000306830607F1C50F8042B30600C9217E055
:104D00002D280CBF17F8010B002000220C920AE09E
:104D100040B90C9A424505DA02EB820203EB4203EA
:104D2000303B0C937F1C3B78A3F130020A2AEFD36F
:104D3000ADF838102046397800F01AFF08B117F89E
:104D4000010B8DF83A009DF83A00682804BF3978C5
:104D5000682903D162208DF83A0007E06C2804BF6F
:104D600038786C2803D171218DF83A107F1C10A877
:104D70000490324617F8013B6946484600F05CF85B
:104D800038B910AA6946484600F084F900287FF532
:104D900069AF284610E02A288FD13068306050F87B
:104DA000042B3060002A0D9204D5524241F00401D8
:104DB0000D9289B27F1C92E71FB0BDE8F083622894
:104DC00020D0682811D06A2803D06C2827D07128F9
:104DD00025D10868C01D20F007000860D0E9002335
:104DE00008300860194610467047002A0A680A60B1
:104DF000106803D0121D0A6000B217E0121D0A608D
:104E000080B217E0002A0A680A60106803D0121DF9
:104E10000A6040B20AE0121D0A60C0B20AE0002A2D
:104E20000A680A60106803D0121D0A60C117704733
:104E3000121D0A600021704770B51C460D46B4F182
:104E400025002E69114600F013812038022865D90B
:104E5000133841D00B3816D0401E1ED0401E0228F9
:104E60005CD9001F19D0401F00F08380401E33D052
:104E7000401E00F0CD80C01E00F0D880801E2BD0D8
:104E8000C01E29D0FAE06869421C6A610A680A609B
:104E900052F8043B0A603354FAE095F83A000122D4
:104EA000FFF78DFFC5E900010023994204DA686924
:104EB000411C69612D210DE0288F810704D56869A7
:104EC000411C69612B2105E0C00722D56869411C9E
:104ED0006961202131541CE095F83A000022FFF767
:104EE0006EFFC5E9000195F83800010711D5D5E935
:104EF00000230020834208BF82420AD044F02000F1
:104F0000782806D1686930213154401C411C696100
:104F10003454214668693044E86083E00868C01D65
:104F200020F007000860D0E9002308300860C5E9D8
:104F30000023D5E90001C80F04D06869411C6961EC
:104F40002D210DE0288F810704D56869411C696116
:104F50002B2105E0C00704D56869411C6961202147
:104F6000315468693044E8602146284600F0C1F9B0
:104F70008EE005F13A02507820B14FF0FF340FF681
:104F800058005EE01078622808D0682824D06A288B
:104F900012D06C282ED071280ED02BE00A680A603F
:104FA00052F8040B0A6020B94FF0FF340FF64000AE
:104FB00047E0E96A01706BE00A680A6052F8040B86
:104FC0000A6020B94FF0FF340FF6240039E0EA6A96
:104FD000D317C0E900235BE00A680A6052F8040BAB
:104FE0000A6020B94FF0FF340FF6040029E0E96AA7
:104FF00001804DE00A680A6052F8040B0A6020B98B
:105000004FF0FF340FF2E8701BE0E96A01603FE007
:105010000A680A6052F8040B0A600021C5E9000121
:10502000EE607821284600F0BCF831E0086808609E
:1050300050F8044B0860EC603CB94FF0FF340FF2BD
:10504000C87000F0A1FD201A70BD2E6B002E04D593
:10505000204600F0BBFD044608E032460021204611
:1050600000F0D0FD002814BF041B3446AC610FE0F3
:105070006869411C69612521315409E06869411C56
:10508000696125223254200002D0481C68617454A2
:10509000002070BD2DE9F0410F4682B00646796BC5
:1050A0007869BC6A091A386A091AB869091A786AEB
:1050B000091AF869091A97F838000C1B410790463D
:1050C0000FD42021002C8DF800100ADD2546012385
:1050D0006A463946304600F064FB00285DD16D1EFB
:1050E000F5D17B6942463946304600F05AFB00282C
:1050F00053D130208DF800003D6A002D09DD0123D9
:105100006A463946304600F04CFB002845D16D1EFA
:10511000F5D1BB69FA683946304600F042FB0028F9
:105120003BD130208DF800007D6A002D08DD012381
:105130006A463946304600F034FB70BB6D1EF6D12E
:10514000F868B969FB6942183946304600F029FB16
:1051500018BB30208DF80000BD6A002D08DD01234A
:105160006A463946304600F01CFBB0B96D1EF6D1D8
:1051700097F8380041070DD52021002C8DF800103C
:1051800008DD01236A463946304600F00AFB20B9A3
:10519000641EF6D10020BDE8F6814FF0FF30BDE877
:1051A000F6812DE9F04704468A462569BAF16F0F6A
:1051B00008BF082705D04AF02000782814BF0A2726
:1051C00010273C26D4E90001BAF1640F18BFBAF1E8
:1051D000690F8046894607D10B4600218B4203DACE
:1051E000D8F1000869EB49090020814508BF8045D6
:1051F0001FD1206BE8B9082F47D194F83800010778
:1052000043D530203B2685F83B003EE000280ED5F4
:1052100094F8380000F01400102808D1626B60691F
:10522000121A206A121A561A002EC8BF2662BDE84A
:10523000F087404649463A46FB1700F00FFD3032F2
:10524000761ED2B23A2AA4BFAAF151008218AA55FA
:10525000404649463A46FB1700F000FD8046894625
:105260000020814508BF804503D0E068A919884225
:10527000DFD3082F09D194F83800010705D5A95DBF
:10528000302902D0761E3020A855A819E060C6F15A
:105290003C01206BA1618142B8DA411A21624FF6CC
:1052A000EF70218F01402187BDE8F0872DE9D043C1
:1052B00006460F4614464FF00008DFF8809212E0D1
:1052C000E00707D542464B4630463946FEF7AAFC72
:1052D00006460F464046494642464B46FEF7A2FC6C
:1052E000641080468946002CEAD130463946BDE834
:1052F000D0832DE9F04F04468FB0206BD4E9009A9B
:105300000028884604AD48BF062005D404BF48F0F5
:105310002000672801D101202063D4E90023580030
:105320004015401C0DD119030BD0A8F161010320D9
:105330001A29A06102D20FF2EC4110E00FF2E8410D
:105340000DE058004015401C0ED119030CD1A8F1F6
:10535000610103201A29A06116D30FF2D441E0683D
:10536000032200F0F3FCE3E0CDE9022323F0004147
:10537000B1F5801F11D20026B14208BFB24201969A
:1053800005D1DDE9020118E00FF2A041E7E7DDE910
:10539000020101AA00F02EFD08E0694E06EB11564D
:1053A000684901960B40684910461943019F674AB6
:1053B00047F29756774397FBF2F6C4E9000102469D
:1053C00021F000430020834204BF8242002300F00A
:1053D000A780484651460022002300F043FD38BF15
:1053E0008AF0004A3246D2F10702019603DD5146A7
:1053F000FFF75CFF0AE0524200205549FFF756FFD5
:1054000002460B4648465146FEF736F9814648F0BB
:10541000200BBBF1660F206B06BF019E0A360626E5
:105420003618142EC8BF142630208A468DF8100076
:105430000DF11107002E33DD4846514600F02AFDDC
:1054400001460A4607F1080304200A27B2FBF7F7D2
:1054500007EB8705A2EB4502303203F8012C0A2244
:10546000B7FBF2F202EB8205A7EB45073037401E8F
:1054700003F8027DE9D1083E002E03F10807D9DDCB
:105480000846FEF7F7FA02460B4648465146FEF735
:10549000FFFA00222F4BFEF7C5FB81468A46CBE779
:1054A0000DF111003F1A0DF1110504E00198401EA5
:1054B0007F1E01906D1C28783028F7D0BBF1660F55
:1054C00002D10198401C04E0BBF1650F0CBF012024
:1054D0000020236BC3189F42B8BF7B1E002B1ED435
:1054E000BB4204DAE85C3528A8BF392000DA302056
:1054F00019466A1E02EB010900E05B1E19F801A9BA
:10550000491E8245F9D0392802D1685C401C685494
:10551000002904D50198401C15465B1C0190019898
:1055200000B200901BB22A464146204600F014F813
:105530000FB0BDE8F08F0000CBCCCC0C00002440B5
:1055400002FCFFFFFFFF0F800000E03FA08601008C
:105550000000F03F84D797412DE9F04786B005461B
:10556000894692461F4600F0A9FC002F406A2E6B28
:1055700090F8008002DC01270FF2B82ABDF938400C
:1055800049F02000662808BF641C13D0672840F04B
:10559000898014F1040F74DBB44272DA95F8380094
:1055A000641C010702D4B742B8BF3E4624B2361B82
:1055B00048BF002624B2E868A969002C22DC4A1CF6
:1055C00030234354002E03DC95F83800010703D53F
:1055D000E86800F80280521CE642B8BF744224B268
:1055E000A6196042BE42B8BF3746AA6168623FB2A0
:1055F000EF61E868AB693A465146184400F0A6FBF3
:10560000F61B18E022469742084416DA3A465146FD
:1056100000F09CFBA9697918E01B002EA961686263
:1056200003DC95F83800020705D5E86800F801802A
:10563000E869401CE861AE629CE0514600F086FBE0
:10564000A86920183F1B002E03DC95F838100A07C4
:1056500003D5E96801F80080401CA8613FB2BE4252
:10566000B8BF3746E868AB693FB23A460AEB040177
:10567000184400F06BFBA8693818A861F61B6E622D
:1056800078E0B74204DA95F838100A0758BF3E466A
:10569000761E48BF0026B9F1670F0CBF4FF06509B1
:1056A0004FF04509A969EB68481CA861002E1AF85B
:1056B000012B5A5403DC95F838100A0717D5E9680E
:1056C000431CAB6101F80080002E10DD7F1E3FB24D
:1056D000BE42B8BF3746E8683FB23A465146184422
:1056E00000F034FBA8693818A861F61B6E62E86800
:1056F000A9690844002C80F8009004D42B21417043
:1057000000F1020A04E02D21417000F1020A644216
:105710004FF000086E4609E00A2203A800F0D4FB0F
:10572000049806F8010B08F10108039C21B2002936
:10573000F2DCB8F1010F06DC49F02000652804BF57
:1057400030200AF8010BB8F1000F0AD130200AF816
:10575000010B09E0A8F101081DF8080030300AF833
:10576000010BB8F1000FF5DCE868A9690844AAEB61
:105770000000E86195F8380000F0140010280DD101
:105780006969A8694118686A4118E8694118A86AF6
:105790004118686B8142BCBF411A296206B0BDE85E
:1057A000F087F8B505460E4617461C46002074B132
:1057B00017F8011BB068A847B06030B1F06A401C10
:1057C000F0620020641EF3D1F2BD4FF0FF30F2BD55
:1057D000686A6C747A4C00007072696E74665F73EC
:1057E0003A20256E20646973616C6C6F7765640084
:1057F0007072696E74663A2062616420256E206161
:105800007267756D656E74007072696E74665F7331
:105810003A2062616420257320617267756D656E40
:10582000740000006E616E004E414E00696E6600AD
:10583000494E46003000000010B5040064B2042C4C
:1058400007DA01220121174864B2005DFEF7CAFCA5
:105850000DE0042406E001220121124864B2005D3B
:10586000FEF7C0FC2000441E40B20028F3D110BD5A
:1058700010B5040064B2042C05DA0A4864B2005D75
:10588000FEF779FD0BE0042404E0064864B2005DF5
:10589000FEF771FD2000441E40B20028F5D110BD76
:1058A00000000000480CFF1F70B504000D0064B23A
:1058B000002C08D0022C2CD018D3042C4FD03BD372
:1058C000052C5FD071E0DFF8F801006850F48060CB
:1058D000DFF8EC1108604FF440716620FEF7A8FE77
:1058E0004FF440716720FEF7A3FE5EE0DFF8D001C1
:1058F000006850F40060DFF8C81108604FF4407190
:105900004320FEF795FE4FF440714420FEF790FED1
:105910004BE0DFF8AC01006850F48050DFF8A011D4
:1059200008604FF440716320FEF782FE4FF440712F
:105930006220FEF77DFE38E0DFF88401006850F455
:105940000050DFF87C1108604FF440715020FEF7E2
:105950006FFE4FF440715120FEF76AFE25E0DFF83C
:105960006401006850F48060DFF8581108604FF45B
:1059700040714E20FEF75CFE4FF440714F20FEF761
:1059800057FE12E0DFF83C01006850F40060DFF8D9
:10599000341108604FF440718920FEF749FE4FF43E
:1059A00040718820FEF744FEFFE7DFF81C0164B277
:1059B00050F82400C07810F0F300DFF80C1164B246
:1059C00051F82410C870DFF8000164B250F82400C8
:1059D0008078DFF8F41064B251F82410887064B253
:1059E000002C02D064B2012C06D1DFF8E00001687F
:1059F0004FF47A70414305E0DFF8D40001684FF4BA
:105A00007A7041432801B1FBF0F6B6B2B6F5005FFB
:105A100001DB41F6FF76B1FBF5F5B6B2B5EB061545
:105A2000ADB2202D03DBDC212A48FFF76AF82648B7
:105A300064B250F82400017811F0E001C6F30420AC
:105A40000143214864B250F8240001701E4864B23A
:105A500050F8240046701C4864B250F82400817A43
:105A600011F0E00115F01F050D43174864B250F81E
:105A700024008572144864B250F82400007C50F071
:105A80008800114964B251F8241008740E4864B2B9
:105A900050F82400C07850F00C000B4964B251F863
:105AA0002410C87070BD084A40B252F82020127904
:105AB0001206F8D5044A40B252F82000C17170476E
:105AC0003480044028800440AC0BFF1FAC3CFF1F17
:105AD000B43CFF1F4474000010B5040064B2082CED
:105AE0000DDA00220021214864B2005DFEF77AFB46
:105AF00003211E4864B2005DFEF7BFFD13E00824D9
:105B00000CE000220021194864B2005DFEF76AFB38
:105B10000321164864B2005DFEF7AFFD2000441E6D
:105B200040B20028EDD110BD80B5104940B2085CEC
:105B3000FEF740FC002801D1002000E0012002BD5A
:105B400010B50400200040B2FFF7EEFF00280AD194
:105B50000A20FEF7AAFF200040B2FFF7E5FF002869
:105B600001D1002000E0012010BD0000400CFF1F0B
:105B70000278C9B28A421AB11CBF10F8012FF9E7A6
:105B800018BF00207047000080B508B90FF21C0054
:105B900005490B681BB122220021984701E000F063
:105BA0009AF9222002BD0000BC3CFF1F636F6E7398
:105BB000747261696E742068616E646C65723A20FB
:105BC000626164206D6573736167650000F10103B4
:105BD000810704D010F8011B89B18107FAD102684E
:105BE000B2F10131914311F0803F04BF50F8042F0E
:105BF000F6E710F8011B11B110F8011BFBE7C01A02
:105C000070470000C9B2830706D0521E22D310F895
:105C1000013B9942F7D11FE0083A13D302F1040285
:105C200041EA012141EA014150F8043B121F21BF22
:105C30004B40A3F1013C2CEA030C1CF0803FF3D055
:105C4000C9B2001F083210F8013B521E28BF91EA6A
:105C5000030FF8D818BF0120401E70471B4213D114
:105C6000094236D12AB18446B0FBF2F002FB10C2E1
:105C7000704700F033B9FCD30022002370470B00BB
:105C80000200002100207047904271EB030CF6D314
:105C900070B5B1FA81F4B3FA83F52C1BA340C4F1BB
:105CA000200532FA05F63343A2405FF00046E64095
:105CB00002E05B085FEA3202841A71EB030524BF3D
:105CC000204629467641F4D302000B003000002123
:105CD00070BD012ACFD970B5140C20D0B1FA81F46F
:105CE000B2FA82F5C4F120046419B4F12006D6D3C7
:105CF000B2405FF00044F440002502E052085FEA41
:105D00003303C61A71EB020E24BF3046714664415C
:105D10006D41F3D302000B002000290070BD0C463A
:105D2000B1FBF2F102FB11452D0445EA1045B5FB2C
:105D3000F2F402FB145580B240EA0545B5FBF2F0DF
:105D400002FB105240EA044070BD000062B38B07B2
:105D500008D0521E11F8013B00F8013B00F02480EE
:105D60008B07F6D1830740F0208000BF103A07D39D
:105D700030B4B1E83810103AA0E83810F9D230BC8D
:105D8000530724BFB1E80810A0E8081044BF51F839
:105D9000043B40F8043BD20724BF31F8022B20F823
:105DA000022B44BF0B7803707047121F17D35B00A0
:105DB00009D151F8043B20F8023B1B0C121F20F8BC
:105DC000023BF6D20BE051F8043B00F8013B1B0A02
:105DD00020F8023B1B0C121F00F8013BF3D238BF26
:105DE000121D521E24BF11F8013B00F8013BF8D8E8
:105DF0007047000010B5144600F002F8226010BD94
:105E0000C1F30A5343B14A0012F5001F28D2A3F28E
:105E1000FE32A1EB0251704750EA410C20D001F054
:105E2000004C31EA0C01B1FA81F204BFB0FA80F300
:105E3000D2180B3AB2F120032CBF00FA03F19140C3
:105E400041EA0C013EBFC2F1200C20FA0CF31943C9
:105E50009040524240F2FD33D21A01EB0351704799
:105E6000002270474FF4001C1CEB410F94BF1CEB49
:105E7000430F09E041EA030C50EA4C0C52EA0C0CC7
:105E800003D2994208BF9042704714BF8B428242AE
